{
  "contractName": "ItemSale",
  "abi": [
    {
      "anonymous": false,
      "inputs": [
        {
          "indexed": false,
          "internalType": "uint256",
          "name": "itemIndex",
          "type": "uint256"
        },
        {
          "indexed": false,
          "internalType": "uint256",
          "name": "step",
          "type": "uint256"
        },
        {
          "indexed": false,
          "internalType": "address",
          "name": "itemAddress",
          "type": "address"
        }
      ],
      "name": "SupplyChainStep",
      "type": "event"
    },
    {
      "inputs": [],
      "name": "isOwner",
      "outputs": [
        {
          "internalType": "bool",
          "name": "",
          "type": "bool"
        }
      ],
      "stateMutability": "view",
      "type": "function"
    },
    {
      "inputs": [
        {
          "internalType": "uint256",
          "name": "",
          "type": "uint256"
        }
      ],
      "name": "items",
      "outputs": [
        {
          "internalType": "contract ItemPay",
          "name": "itemPay",
          "type": "address"
        },
        {
          "internalType": "string",
          "name": "identifier",
          "type": "string"
        },
        {
          "internalType": "enum ItemSale.SupplyChainState",
          "name": "state",
          "type": "uint8"
        }
      ],
      "stateMutability": "view",
      "type": "function"
    },
    {
      "inputs": [],
      "name": "owner",
      "outputs": [
        {
          "internalType": "address",
          "name": "",
          "type": "address"
        }
      ],
      "stateMutability": "view",
      "type": "function"
    },
    {
      "inputs": [
        {
          "internalType": "string",
          "name": "_identifier",
          "type": "string"
        },
        {
          "internalType": "uint256",
          "name": "_itemPrice",
          "type": "uint256"
        }
      ],
      "name": "createItem",
      "outputs": [],
      "stateMutability": "nonpayable",
      "type": "function"
    },
    {
      "inputs": [
        {
          "internalType": "uint256",
          "name": "_itemIndex",
          "type": "uint256"
        }
      ],
      "name": "triggerPayment",
      "outputs": [],
      "stateMutability": "payable",
      "type": "function"
    },
    {
      "inputs": [
        {
          "internalType": "uint256",
          "name": "_itemIndex",
          "type": "uint256"
        }
      ],
      "name": "deliverItem",
      "outputs": [],
      "stateMutability": "nonpayable",
      "type": "function"
    }
  ],
  "bytecode": "0x6080604052348015600e575f5ffd5b50335f5f6101000a81548173ffffffffffffffffffffffffffffffffffffffff021916908373ffffffffffffffffffffffffffffffffffffffff1602179055506117558061005b5f395ff3fe608060405260043610610054575f3560e01c8063800fb83f146100585780638c551742146100745780638da5cb5b1461009c5780638f32d59b146100c6578063a0a5af5f146100f0578063bfb231d214610118575b5f5ffd5b610072600480360381019061006d9190610809565b610156565b005b34801561007f575f5ffd5b5061009a60048036038101906100959190610970565b6102b9565b005b3480156100a7575f5ffd5b506100b06104c2565b6040516100bd9190610a09565b60405180910390f35b3480156100d1575f5ffd5b506100da6104e6565b6040516100e79190610a3c565b60405180910390f35b3480156100fb575f5ffd5b5061011660048036038101906101119190610809565b61057c565b005b348015610123575f5ffd5b5061013e60048036038101906101399190610809565b6106e1565b60405161014d93929190610b83565b60405180910390f35b5f600281111561016957610168610b10565b5b60015f8381526020019081526020015f206002015f9054906101000a900460ff16600281111561019c5761019b610b10565b5b146101dc576040517f08c379a00000000000000000000000000000000000000000000000000000000081526004016101d390610c09565b60405180910390fd5b6001805f8381526020019081526020015f206002015f6101000a81548160ff0219169083600281111561021257610211610b10565b5b02179055507fa4035636e99f06b7651a604c1019fa4e8779fe68ef27eeb74dff2de348f6199b8160015f8481526020019081526020015f206002015f9054906101000a900460ff16600281111561026c5761026b610b10565b5b60015f8581526020019081526020015f205f015f9054906101000a900473ffffffffffffffffffffffffffffffffffffffff166040516102ae93929190610c36565b60405180910390a150565b3373ffffffffffffffffffffffffffffffffffffffff165f5f9054906101000a900473ffffffffffffffffffffffffffffffffffffffff1673ffffffffffffffffffffffffffffffffffffffff1614610347576040517f08c379a000000000000000000000000000000000000000000000000000000000815260040161033e90610cb5565b60405180910390fd5b5f3082600254604051610359906107b8565b61036593929190610d04565b604051809103905ff08015801561037e573d5f5f3e3d5ffd5b5090508060015f60025481526020019081526020015f205f015f6101000a81548173ffffffffffffffffffffffffffffffffffffffff021916908373ffffffffffffffffffffffffffffffffffffffff1602179055508260015f60025481526020019081526020015f2060010190816103f79190610f2d565b505f60015f60025481526020019081526020015f206002015f6101000a81548160ff021916908360028111156104305761042f610b10565b5b021790555060025f81548092919061044790611029565b91905055507fa4035636e99f06b7651a604c1019fa4e8779fe68ef27eeb74dff2de348f6199b60025460015f60025481526020019081526020015f206002015f9054906101000a900460ff1660028111156104a5576104a4610b10565b5b836040516104b593929190610c36565b60405180910390a1505050565b5f5f9054906101000a900473ffffffffffffffffffffffffffffffffffffffff1681565b5f3373ffffffffffffffffffffffffffffffffffffffff165f5f9054906101000a900473ffffffffffffffffffffffffffffffffffffffff1673ffffffffffffffffffffffffffffffffffffffff1614610575576040517f08c379a000000000000000000000000000000000000000000000000000000000815260040161056c90610cb5565b60405180910390fd5b6001905090565b600160028111156105905761058f610b10565b5b60015f8381526020019081526020015f206002015f9054906101000a900460ff1660028111156105c3576105c2610b10565b5b14610603576040517f08c379a00000000000000000000000000000000000000000000000000000000081526004016105fa90610c09565b60405180910390fd5b600260015f8381526020019081526020015f206002015f6101000a81548160ff0219169083600281111561063a57610639610b10565b5b02179055507fa4035636e99f06b7651a604c1019fa4e8779fe68ef27eeb74dff2de348f6199b8160015f8481526020019081526020015f206002015f9054906101000a900460ff16600281111561069457610693610b10565b5b60015f8581526020019081526020015f205f015f9054906101000a900473ffffffffffffffffffffffffffffffffffffffff166040516106d693929190610c36565b60405180910390a150565b6001602052805f5260405f205f91509050805f015f9054906101000a900473ffffffffffffffffffffffffffffffffffffffff169080600101805461072590610d66565b80601f016020809104026020016040519081016040528092919081815260200182805461075190610d66565b801561079c5780601f106107735761010080835404028352916020019161079c565b820191905f5260205f20905b81548152906001019060200180831161077f57829003601f168201915b505050505090806002015f9054906101000a900460ff16905083565b6106af8061107183390190565b5f604051905090565b5f5ffd5b5f5ffd5b5f819050919050565b6107e8816107d6565b81146107f2575f5ffd5b50565b5f81359050610803816107df565b92915050565b5f6020828403121561081e5761081d6107ce565b5b5f61082b848285016107f5565b91505092915050565b5f5ffd5b5f5ffd5b5f601f19601f8301169050919050565b7f4e487b71000000000000000000000000000000000000000000000000000000005f52604160045260245ffd5b6108828261083c565b810181811067ffffffffffffffff821117156108a1576108a061084c565b5b80604052505050565b5f6108b36107c5565b90506108bf8282610879565b919050565b5f67ffffffffffffffff8211156108de576108dd61084c565b5b6108e78261083c565b9050602081019050919050565b828183375f83830152505050565b5f61091461090f846108c4565b6108aa565b9050828152602081018484840111156109305761092f610838565b5b61093b8482856108f4565b509392505050565b5f82601f83011261095757610956610834565b5b8135610967848260208601610902565b91505092915050565b5f5f60408385031215610986576109856107ce565b5b5f83013567ffffffffffffffff8111156109a3576109a26107d2565b5b6109af85828601610943565b92505060206109c0858286016107f5565b9150509250929050565b5f73ffffffffffffffffffffffffffffffffffffffff82169050919050565b5f6109f3826109ca565b9050919050565b610a03816109e9565b82525050565b5f602082019050610a1c5f8301846109fa565b92915050565b5f8115159050919050565b610a3681610a22565b82525050565b5f602082019050610a4f5f830184610a2d565b92915050565b5f819050919050565b5f610a78610a73610a6e846109ca565b610a55565b6109ca565b9050919050565b5f610a8982610a5e565b9050919050565b5f610a9a82610a7f565b9050919050565b610aaa81610a90565b82525050565b5f81519050919050565b5f82825260208201905092915050565b8281835e5f83830152505050565b5f610ae282610ab0565b610aec8185610aba565b9350610afc818560208601610aca565b610b058161083c565b840191505092915050565b7f4e487b71000000000000000000000000000000000000000000000000000000005f52602160045260245ffd5b60038110610b4e57610b4d610b10565b5b50565b5f819050610b5e82610b3d565b919050565b5f610b6d82610b51565b9050919050565b610b7d81610b63565b82525050565b5f606082019050610b965f830186610aa1565b8181036020830152610ba88185610ad8565b9050610bb76040830184610b74565b949350505050565b7f6974656d206973206675727468657220696e2074686520636861696e000000005f82015250565b5f610bf3601c83610aba565b9150610bfe82610bbf565b602082019050919050565b5f6020820190508181035f830152610c2081610be7565b9050919050565b610c30816107d6565b82525050565b5f606082019050610c495f830186610c27565b610c566020830185610c27565b610c6360408301846109fa565b949350505050565b7f796f7520617265206e6f7420746865206f776e657200000000000000000000005f82015250565b5f610c9f601583610aba565b9150610caa82610c6b565b602082019050919050565b5f6020820190508181035f830152610ccc81610c93565b9050919050565b5f610cdd82610a5e565b9050919050565b5f610cee82610cd3565b9050919050565b610cfe81610ce4565b82525050565b5f606082019050610d175f830186610cf5565b610d246020830185610c27565b610d316040830184610c27565b949350505050565b7f4e487b71000000000000000000000000000000000000000000000000000000005f52602260045260245ffd5b5f6002820490506001821680610d7d57607f821691505b602082108103610d9057610d8f610d39565b5b50919050565b5f819050815f5260205f209050919050565b5f6020601f8301049050919050565b5f82821b905092915050565b5f60088302610df27fffffffffffffffffffffffffffffffffffffffffffffffffffffffffffffffff82610db7565b610dfc8683610db7565b95508019841693508086168417925050509392505050565b5f610e2e610e29610e24846107d6565b610a55565b6107d6565b9050919050565b5f819050919050565b610e4783610e14565b610e5b610e5382610e35565b848454610dc3565b825550505050565b5f5f905090565b610e72610e63565b610e7d818484610e3e565b505050565b5b81811015610ea057610e955f82610e6a565b600181019050610e83565b5050565b601f821115610ee557610eb681610d96565b610ebf84610da8565b81016020851015610ece578190505b610ee2610eda85610da8565b830182610e82565b50505b505050565b5f82821c905092915050565b5f610f055f1984600802610eea565b1980831691505092915050565b5f610f1d8383610ef6565b9150826002028217905092915050565b610f3682610ab0565b67ffffffffffffffff811115610f4f57610f4e61084c565b5b610f598254610d66565b610f64828285610ea4565b5f60209050601f831160018114610f95575f8415610f83578287015190505b610f8d8582610f12565b865550610ff4565b601f198416610fa386610d96565b5f5b82811015610fca57848901518255600182019150602085019450602081019050610fa5565b86831015610fe75784890151610fe3601f891682610ef6565b8355505b6001600288020188555050505b505050505050565b7f4e487b71000000000000000000000000000000000000000000000000000000005f52601160045260245ffd5b5f611033826107d6565b91507fffffffffffffffffffffffffffffffffffffffffffffffffffffffffffffffff820361106557611064610ffc565b5b60018201905091905056fe608060405234801561000f575f5ffd5b506040516106af3803806106af83398181016040528101906100319190610128565b815f81905550806001819055508260035f6101000a81548173ffffffffffffffffffffffffffffffffffffffff021916908373ffffffffffffffffffffffffffffffffffffffff160217905550505050610178565b5f5ffd5b5f73ffffffffffffffffffffffffffffffffffffffff82169050919050565b5f6100b38261008a565b9050919050565b5f6100c4826100a9565b9050919050565b6100d4816100ba565b81146100de575f5ffd5b50565b5f815190506100ef816100cb565b92915050565b5f819050919050565b610107816100f5565b8114610111575f5ffd5b50565b5f81519050610122816100fe565b92915050565b5f5f5f6060848603121561013f5761013e610086565b5b5f61014c868287016100e1565b935050602061015d86828701610114565b925050604061016e86828701610114565b9150509250925092565b61052a806101855f395ff3fe60806040526004361061002c575f3560e01c80632986c0e51461022e5780633c8da588146102585761022c565b3661022c575f60025414610075576040517f08c379a000000000000000000000000000000000000000000000000000000000815260040161006c906102e7565b60405180910390fd5b5f5434146100b8576040517f08c379a00000000000000000000000000000000000000000000000000000000081526004016100af9061034f565b60405180910390fd5b3460025f8282546100c991906103a3565b925050819055505f60035f9054906101000a900473ffffffffffffffffffffffffffffffffffffffff1673ffffffffffffffffffffffffffffffffffffffff163460015460405160240161011d91906103e5565b6040516020818303038152906040527f800fb83f000000000000000000000000000000000000000000000000000000007bffffffffffffffffffffffffffffffffffffffffffffffffffffffff19166020820180517bffffffffffffffffffffffffffffffffffffffffffffffffffffffff83818316178352505050506040516101a79190610450565b5f6040518083038185875af1925050503d805f81146101e1576040519150601f19603f3d011682016040523d82523d5f602084013e6101e6565b606091505b505090508061022a576040517f08c379a0000000000000000000000000000000000000000000000000000000008152600401610221906104d6565b60405180910390fd5b005b005b348015610239575f5ffd5b50610242610282565b60405161024f91906103e5565b60405180910390f35b348015610263575f5ffd5b5061026c610288565b60405161027991906103e5565b60405180910390f35b60015481565b5f5481565b5f82825260208201905092915050565b7f4974656d2068617320616c7265616479206265696e67207061696420666f72005f82015250565b5f6102d1601f8361028d565b91506102dc8261029d565b602082019050919050565b5f6020820190508181035f8301526102fe816102c5565b9050919050565b7f6974656d2068617320746f206265207061696420666f7220696e2066756c6c005f82015250565b5f610339601f8361028d565b915061034482610305565b602082019050919050565b5f6020820190508181035f8301526103668161032d565b9050919050565b5f819050919050565b7f4e487b71000000000000000000000000000000000000000000000000000000005f52601160045260245ffd5b5f6103ad8261036d565b91506103b88361036d565b92508282019050808211156103d0576103cf610376565b5b92915050565b6103df8161036d565b82525050565b5f6020820190506103f85f8301846103d6565b92915050565b5f81519050919050565b5f81905092915050565b8281835e5f83830152505050565b5f61042a826103fe565b6104348185610408565b9350610444818560208601610412565b80840191505092915050565b5f61045b8284610420565b915081905092915050565b7f7472616e73616374696f6e207761736e2774207375636365737366756c2c20725f8201527f6576657274696e67000000000000000000000000000000000000000000000000602082015250565b5f6104c060288361028d565b91506104cb82610466565b604082019050919050565b5f6020820190508181035f8301526104ed816104b4565b905091905056fea26469706673582212205ad2343d0dfb4fb636ca4063a98f3dfa8ee0fff92d81558dc13201abf0b2f8b364736f6c634300081c0033a26469706673582212204563cdb5d268254be19f2fcfe8e0809ba6e909bd7eab7541bcc172532a4e75a564736f6c634300081c0033",
  "immutableReferences": {},
  "source": "// SPDX-License-Identifier: MIT\r\npragma solidity >=0.8.18;\r\n\r\nimport \"./ItemPay.sol\";\r\nimport \"./Owner.sol\";\r\n\r\ncontract ItemSale is Owner {\r\n\r\n    enum SupplyChainState{created, paid, delivered}\r\n    struct S_item {\r\n        ItemPay itemPay;\r\n        string identifier;\r\n        ItemSale.SupplyChainState state;\r\n    }\r\n\r\n    mapping (uint => S_item) public items;\r\n    uint itemIndex;\r\n\r\n    event SupplyChainStep(uint itemIndex, uint step, address itemAddress);\r\n\r\n\r\n    function createItem(string memory _identifier, uint _itemPrice) public onlyOwner {\r\n        ItemPay _item = new ItemPay(this, _itemPrice, itemIndex);\r\n        items[itemIndex].itemPay = _item;\r\n        items[itemIndex].identifier = _identifier;\r\n        items[itemIndex].state = SupplyChainState.created;\r\n        itemIndex++;\r\n        emit SupplyChainStep(itemIndex, uint(items[itemIndex].state), address(_item));\r\n    }\r\n\r\n    function triggerPayment(uint _itemIndex) public payable {\r\n        require(items[_itemIndex].state == SupplyChainState.created, \"item is further in the chain\");\r\n        items[_itemIndex].state = SupplyChainState.paid;\r\n        emit SupplyChainStep(_itemIndex, uint(items[_itemIndex].state), address(items[_itemIndex].itemPay));\r\n    }\r\n\r\n    function deliverItem(uint _itemIndex) public {\r\n        require(items[_itemIndex].state == SupplyChainState.paid, \"item is further in the chain\");\r\n        items[_itemIndex].state = SupplyChainState.delivered;\r\n        emit SupplyChainStep(_itemIndex, uint(items[_itemIndex].state), address(items[_itemIndex].itemPay));\r\n    }\r\n\r\n\r\n    \r\n}\r\n\r\n",
  "sourcePath": "C:\\Users\\Funso Faleye\\Desktop\\web3\\Supply Chain project\\my-react-app\\src\\truffle\\contracts\\ItemSale.sol",
  "compiler": {
    "name": "solc",
    "version": "0.8.28+commit.7893614a.Emscripten.clang"
  },
  "schemaVersion": "3.4.16",
  "updatedAt": "2024-12-22T14:19:44.485Z",
  "devdoc": {
    "kind": "dev",
    "methods": {},
    "version": 1
  },
  "userdoc": {
    "kind": "user",
    "methods": {},
    "version": 1
  }
}