{
  "contractName": "ItemPay",
  "abi": [
    {
      "inputs": [
        {
          "internalType": "contract ItemSale",
          "name": "_parentContract",
          "type": "address"
        },
        {
          "internalType": "uint256",
          "name": "_priceInWei",
          "type": "uint256"
        },
        {
          "internalType": "uint256",
          "name": "_itemIndex",
          "type": "uint256"
        }
      ],
      "stateMutability": "nonpayable",
      "type": "constructor"
    },
    {
      "stateMutability": "payable",
      "type": "fallback"
    },
    {
      "inputs": [],
      "name": "index",
      "outputs": [
        {
          "internalType": "uint256",
          "name": "",
          "type": "uint256"
        }
      ],
      "stateMutability": "view",
      "type": "function"
    },
    {
      "inputs": [],
      "name": "priceInWei",
      "outputs": [
        {
          "internalType": "uint256",
          "name": "",
          "type": "uint256"
        }
      ],
      "stateMutability": "view",
      "type": "function"
    },
    {
      "stateMutability": "payable",
      "type": "receive"
    }
  ],
  "bytecode": "0x608060405234801561000f575f5ffd5b506040516106af3803806106af83398181016040528101906100319190610128565b815f81905550806001819055508260035f6101000a81548173ffffffffffffffffffffffffffffffffffffffff021916908373ffffffffffffffffffffffffffffffffffffffff160217905550505050610178565b5f5ffd5b5f73ffffffffffffffffffffffffffffffffffffffff82169050919050565b5f6100b38261008a565b9050919050565b5f6100c4826100a9565b9050919050565b6100d4816100ba565b81146100de575f5ffd5b50565b5f815190506100ef816100cb565b92915050565b5f819050919050565b610107816100f5565b8114610111575f5ffd5b50565b5f81519050610122816100fe565b92915050565b5f5f5f6060848603121561013f5761013e610086565b5b5f61014c868287016100e1565b935050602061015d86828701610114565b925050604061016e86828701610114565b9150509250925092565b61052a806101855f395ff3fe60806040526004361061002c575f3560e01c80632986c0e51461022e5780633c8da588146102585761022c565b3661022c575f60025414610075576040517f08c379a000000000000000000000000000000000000000000000000000000000815260040161006c906102e7565b60405180910390fd5b5f5434146100b8576040517f08c379a00000000000000000000000000000000000000000000000000000000081526004016100af9061034f565b60405180910390fd5b3460025f8282546100c991906103a3565b925050819055505f60035f9054906101000a900473ffffffffffffffffffffffffffffffffffffffff1673ffffffffffffffffffffffffffffffffffffffff163460015460405160240161011d91906103e5565b6040516020818303038152906040527f800fb83f000000000000000000000000000000000000000000000000000000007bffffffffffffffffffffffffffffffffffffffffffffffffffffffff19166020820180517bffffffffffffffffffffffffffffffffffffffffffffffffffffffff83818316178352505050506040516101a79190610450565b5f6040518083038185875af1925050503d805f81146101e1576040519150601f19603f3d011682016040523d82523d5f602084013e6101e6565b606091505b505090508061022a576040517f08c379a0000000000000000000000000000000000000000000000000000000008152600401610221906104d6565b60405180910390fd5b005b005b348015610239575f5ffd5b50610242610282565b60405161024f91906103e5565b60405180910390f35b348015610263575f5ffd5b5061026c610288565b60405161027991906103e5565b60405180910390f35b60015481565b5f5481565b5f82825260208201905092915050565b7f4974656d2068617320616c7265616479206265696e67207061696420666f72005f82015250565b5f6102d1601f8361028d565b91506102dc8261029d565b602082019050919050565b5f6020820190508181035f8301526102fe816102c5565b9050919050565b7f6974656d2068617320746f206265207061696420666f7220696e2066756c6c005f82015250565b5f610339601f8361028d565b915061034482610305565b602082019050919050565b5f6020820190508181035f8301526103668161032d565b9050919050565b5f819050919050565b7f4e487b71000000000000000000000000000000000000000000000000000000005f52601160045260245ffd5b5f6103ad8261036d565b91506103b88361036d565b92508282019050808211156103d0576103cf610376565b5b92915050565b6103df8161036d565b82525050565b5f6020820190506103f85f8301846103d6565b92915050565b5f81519050919050565b5f81905092915050565b8281835e5f83830152505050565b5f61042a826103fe565b6104348185610408565b9350610444818560208601610412565b80840191505092915050565b5f61045b8284610420565b915081905092915050565b7f7472616e73616374696f6e207761736e2774207375636365737366756c2c20725f8201527f6576657274696e67000000000000000000000000000000000000000000000000602082015250565b5f6104c060288361028d565b91506104cb82610466565b604082019050919050565b5f6020820190508181035f8301526104ed816104b4565b905091905056fea26469706673582212205ad2343d0dfb4fb636ca4063a98f3dfa8ee0fff92d81558dc13201abf0b2f8b364736f6c634300081c0033",
  "immutableReferences": {},
  "source": "// SPDX-License-Identifier: MIT\r\n\r\npragma solidity >=0.8.18;\r\n\r\nimport './ItemSale.sol';\r\n\r\ncontract ItemPay {\r\n    uint public priceInWei;\r\n    uint public index;\r\n    uint pricePaid;\r\n    ItemSale parentContract;\r\n\r\n    constructor(ItemSale _parentContract, uint _priceInWei, uint _itemIndex) {\r\n        priceInWei = _priceInWei;\r\n        index = _itemIndex;\r\n        parentContract = _parentContract;\r\n    }\r\n\r\n    receive() external payable { \r\n        require(pricePaid == 0, \"Item has already being paid for\");\r\n        require(msg.value == priceInWei , \"item has to be paid for in full\");\r\n\r\n        pricePaid += msg.value;\r\n        (bool success, ) = address(parentContract).call{value: msg.value}(abi.encodeWithSignature(\"triggerPayment(uint256)\", index));  \r\n        require(success, \"transaction wasn't successful, reverting\");\r\n    }\r\n\r\n    fallback() external payable { \r\n        \r\n    }\r\n\r\n}\r\n",
  "sourcePath": "C:\\Users\\Funso Faleye\\Desktop\\web3\\Supply Chain project\\my-react-app\\src\\truffle\\contracts\\ItemPay.sol",
  "compiler": {
    "name": "solc",
    "version": "0.8.28+commit.7893614a.Emscripten.clang"
  },
  "schemaVersion": "3.4.16",
  "updatedAt": "2024-12-22T14:19:44.471Z",
  "devdoc": {
    "kind": "dev",
    "methods": {},
    "version": 1
  },
  "userdoc": {
    "kind": "user",
    "methods": {},
    "version": 1
  }
}